:1008520058696E206368616F204B544D54363100E5
:100862002A2A2A2A2A2A2A2A2A2A2A2A2A2A2A0010
:100872001209071208D37BFF7A0879521208007F07
:0F088200C01208F37BFF7A08796212080080FE2B
:03090700D2912268
:10082C00E4FDFCE4FBFAC3EB9FEE6480F8EA648021
:10083C009850070BBB00010A80EC0DBD00010CBCED
:05084C0003E1BDE8DE40
:010851002284
:0A08F3008F80C2901208BFD292223B
:0D08BF00C291D2927F017E0012082CC292DD
:0708CC007F0A7E0002082CE8
:1008D3007F381208F37F0E1208F37F011208F37FAB
:0408E300800208F394
:0A08FD008F80D2901208BFD2922221
:060800008B088A09890A39
:100806001208AA8F0BE50B601CAB08AA09A90A12ED
:100816000891FF1208FD7401250AF50AE43509F569
:0508260009150B80E044
:01082B0022AA
:030000000208E70C
:0C08E700787FE4F6D8FD75810B020872E2
:10089100BB010689828A83E0225002E722BBFE0265
:0908A100E32289828A83E4932298
:1008AA00E4FFFE120891600C0FEF70010E09E97067
:0508BA00F20A80EF22AC
:00000001FF
