:03000000020100FA
:0300030002019B5C
:0300130002019D4A
:100100007590FF75A0FF75A885D288D28A78027590
:1001100040407541797542247543307544197545E1
:1001200012754602754778754800754910E590B418
:100130000009E5A0B4001BE833500478008008E80B
:10014000C3940A40027809E84440F9878031630289
:10015000012D318B318418E8B400F7318BB40934A8
:1001600002012DC0077FFA0000DFFCD00722C2A9E0
:100170005389F0438901758C3C758AB0C28DD28C4D
:10018000308DFD227A14316EDAFC22E84440F98782
:0F01900080316322D287318402012D0832183268
:00000001FF
