:0409CD00020800001C
:10092A008F23E523B431047F018007E523B4320520
:0B093A007FC00209B9AF231209C322DD
:10099B00759850438920758DFD758BFDD2ACD2AF08
:0309AB00D28E22C7
:0300230002088C44
:10088C00C0E0C0F0C083C082C0D075D000C000C032
:10089C0001C002C003C004C005C006C00730980FD9
:1008AC00C29885990A850A99AF0A12092A8002C250
:1008BC0099D007D006D005D004D003D002D001D0F7
:0C08CC0000D0D0D082D083D0F0D0E03239
:0B09AE0012099B1209D212098780FE7B
:0309D200D291229D
:10090400E4FDFCE4FBFAC3EB9FEE6480F8EA648048
:100914009850070BBB00010A80EC0DBD00010CBC14
:0509240003E1BDE8DE67
:0109290022AB
:0A09B9008F80C290120973D29222BF
:0D097300C291D2927F017E00120904C2924F
:070980007F0A7E000209045A
:100987007F381209B97F0E1209B97F011209B97FA1
:04099700800209B918
:0A09C3008F80D290120973D29222A5
:0608D8008B1F8A2089211C
:1008DE0012095E8F22E522601CAB1FAA20A92112ED
:1008EE000945FF1209C374012521F521E43520F5D0
:0508FE0020152280E03E
:0109030022D1
:03000000020800F3
:0C080000787FE4F6D8FD758123020847DC
:10094500BB010689828A83E0225002E722BBFE02B0
:09095500E32289828A83E49322E3
:10095E00E4FFFE120945600C0FEF70010E09E970FD
:05096E00F20A80EF22F7
:10080C000209AEE493A3F8E493A34003F68001F24B
:10081C0008DFF48029E493A3F85407240CC8C333ED
:10082C00C4540F4420C8834004F456800146F6DFBC
:10083C00E4800B01020408102040809009CDE47E76
:10084C00019360BCA3FF543F30E509541FFEE493B1
:10085C00A360010ECF54C025E060A840B8E493A378
:10086C00FAE493A3F8E493A3C8C582C8CAC583CAA3
:10087C00F0A3C8C582C8CAC583CADFE9DEE780BE5B
:0109D1000025
:00000001FF
